:020000040000FA
:0600000002010A02283390
:03002B00022C8E16
:03003300022C702C
:030053000228A6DA
:03006B00022C4A1A
:100083000226E7E5C754F84401F5C77901220000C9
:100093000080FB120086B900030200F4E4792178A2
:1000A30008B800028004F709D8FCE479297802B87B
:1000B30000028004F709D8FCE490028178517908A2
:1000C3008002F0A3D8FCD9FA9009D1AA82AB83901D
:1000D300013A78A179058015E493A3AC82AD838AB4
:1000E300828B83F0A3AA82AB838C828D83D8E9D9D8
:1000F300E77582027583CE740312011C75829175B4
:100103008300740012011C75D00075813F7518813E
:10011300751902759F00020096C09FF59FE473D086
:100123009F22D083D082C09FE493C0E0740193C028
:10013300E0740293F59F22FF0000B400002800281A
:1001430000283075A000A000A000A000000800084F
:10015300E001F0001000100010001000100010006B
:1001630050005000500010001000D00700000000A5
:1001730000000F00010005003075070010000100AA
:1001830081FF0000FFD807F607DE07FF020202081F
:10019300025000A0000000E803024C86010000208A
:1001A30086024886010000260A024286010000B248
:1001B30002024886010000270A024086010000C8A7
:1001C30002024886010000280A023E86010000CA96
:1001D30002024886010000290A023C86080000CB7F
:1001E300020248860100002A0A023A860100002B17
:1001F3000AFF0100FF20024C860100002686024808
:10020300860100008F0A02388600000000000244C5
:10021300860300001803B40DB40DB40DB40DB40D72
:10022300B40DB40DB40DB40DB40DB40DB40DB40DC3
:10023300301048102A10FFFF110199010F126404B6
:1002430001024C860100002386024886010000D784
:100253000A025686010000D80A0244860300008081
:1002630007023686010000D90A02020202020202D4
:100273000202010D0000001001024C860100001A69
:1002830086024886010000030B022E8601000086C9
:1002930007024886010000040B023086010000FFBC
:1002A30083024886010000050B023286010000C864
:1002B30083024886010000060B0234860100000F0A
:1002C30083024886010000070B02748601000021A7
:1002D30083024886010000080B0252860100004594
:1002E30083024886010000090B025886010000338F
:1002F300830248860100000A0B025A86010000E4CB
:10030300830248860100000B0B025C860100000C8F
:100313000B01E803053F10FF0001307503020106DE
:1003230000000000000000000000000000000000CA
:10033300000000000000000000000000FFFF0600B6
:10034300800CE8030B0942616261436C6F756C6456
:10035300051208000800020A0002010610094261A2
:100363006261636C6F7564205069616E6F02F0FFA8
:1003730042616261636C6F7564205069616E6F00E6
:100383000000000000E6140000F2140A43686172E2
:100393006163746572697374696320310002436831
:1003A30061726163746572697374696320320008F2
:1003B300436861726163746572697374696320333E
:1003C3000010436861726163746572697374696371
:1003D3002034000A54656D7065726174757265200E
:1003E30055706461746520436F6E666967001A43D4
:1003F300757272656E742054656D70657261747583
:100403007265000A446576696365204E616D6520F7
:10041300436F6E666967000A54656D706572617437
:1004230075726520416C6572740002414443342047
:100433004144433520526561642056616C756520E3
:100443003134426974000A50574D20436F6E666918
:100453006700024C860100002986024886010000DD
:10046300250C0260860300008E0902468601000007
:10047300260C024886010000370C02628601000048
:100483008F09024686010000380C024886010000ED
:10049300490C0264860200009009024686010000AE
:1004A3004A0C0248860100005B0C026686000000CD
:1004B3009109024486030000920902468601000066
:1004C3005C0C0248860100006D0C02688603000084
:1004D30098090246860100006E0C0248860100005E
:1004E300880C026A860300009D090244860300000B
:1004F300A209024686010000890C02488601000019
:100503009D0C026C86030000A809024686010000C8
:100513009E0C024886010000B10C026E86030000A7
:10052300BD09024686010000B20C024886010000A4
:10053300C40C027086010000C20902468601000055
:10054300C50C024886010000E00C0272860300001D
:10055300C509024686010000E10C104B6579205065
:100563007265737320537461746500024C860100D5
:10057300001D86024886010000F40D027A86000001
:1005830000CA09024486030000CB09024686010023
:1005930000F50D3031323334353637383941424383
:1005A30044454600286E756C6C20706F696E7465E7
:1005B3007229003F3F3F000000807F0000803FF929
:1005C300021550B743BA5100E7DB2E0000A04010DC
:1005D30000000008000000120125AEBE0312012531
:1005E300C5BE03120125F4BE031201252DBF03125C
:1005F300012555BF0312012583BF031201259ABFAD
:1006030003120125B1BF03120125C7BF0312012540
:10061300EEBF0312012501C00312012517C0031207
:1006230001252AC0031201254FC003120125C1CCA5
:1006330002120125C0CD02120125F5CD02120125BA
:1006430016CE0212012526CE0212012547CE021232
:10065300012553CF0212012520D00212012593D088
:100663000212012519D1021201255CD102120125C2
:1006730093D10212012519D202120125EBD20212E3
:10068300012549D30212012561D302120125DBD3CF
:1006930002120125DED302120125E1D30212012544
:1006A30088D402120125A0D402120125D0D402124B
:1006B3000125F0D402120125DED50212012594D6BC
:1006C30002120125D08903120125F889031201259D
:1006D300268A031201255D8A03120125C58A0312A6
:1006E30001250E8B03120125598B03120125978BCC
:1006F30003120125D48B03120125028C0312012559
:10070300A98C03120125B38C03120125C08C03129B
:100713000125F38C03120125B58D03120125C18D2B
:1007230003120125D98D03120125E38D031201253F
:1007330016FF0112012524FF011201253CFF0112BE
:10074300012554FF01120125BBCD0112012559CE0C
:1007530001120125D1CE01120125E6CF0112012597
:1007630020D001120125C9D0011201259ED1011209
:10077300012502D30112012559D301120125E0D32A
:1007830001120125C7D40112012514D50112012537
:10079300A2D501120125C6D5011201259BD701124D
:1007A3000125DCD701120125FED7011201257FD8CF
:1007B3000112012569D9011201252FDA0112012540
:1007C300F1F602120125C3F7021201256CF8021299
:1007D3000125AFF8021201253CF902120125C8F9DF
:1007E30002120125A9FA02120125D8FA02120125E3
:1007F300D4FB021201251CFC021201251EFD02126C
:10080300012562FD0212012588FD02120125DDCBBF
:10081300031201252BA30312012541A30312012572
:1008230067A3031201258FA40312012599A40312C0
:100833000125F2A503120125F2A60312012500806A
:100843000312012535810312012568810312012555
:10085300B281031201257083031201255EBE0112CA
:100863000125C1BE0112012506C00112012516C0D2
:100873000112012539C00112012584C0011201258D
:1008830029C1011201251FC201120125E9C201126A
:10089300012561C401120125A3C40112012541C52B
:1008A300011201258EC501120125B4C501120125CE
:1008B300A2C701120125A7C70112012588C9011288
:1008C3000125DCC9011201253ECA0112012566CAB0
:1008D300011201250ACB01120125CCCB01120125FE
:1008E300FDCB0112012500CC0112012548CC0112D8
:1008F30001258ACC01120125F1CC0112012589B60B
:10090300031201259CB603120125B5B60312012576
:1009130000B703120125DBB7031201256AB80312DE
:100923000125B5B803120125B02C00120125BC2CFA
:1009330000120125F52C001201253A2D0012012584
:10094300F12D00120125772E00120125DC2E001255
:100953000125082F00120125412F001201255531D1
:10096300001201253133001201251C350012012527
:10097300533600120125B338001201259F390012A6
:100983000125E53A00120125F23B001201250F3C37
:1009930000120125473C00120125613C001201258C
:1009A300C93C0012012563410012012504420012D3
:1009B30001255542001201257C4200120125CA423D
:1009C30000120125E842001201253C4300120125D3
:1009D3001544001201259C450012012524460012EE
:1009E3000125268503120125308503120125FB8588
:1009F300031201251686031201253C8603120125E5
:100A0300808603120125B88603120125E1860312AD
:100A130001255A87031201256F8703120125848755
:100A230003120125BB8703120125CF87031201257A
:100A33000088031201253A880312012566880312F0
:100A43000125BC8803120125108903120125598948
:100A530003120125838903120125A88903120125A5
:100A63005B9B03120125259C03120125089D03129C
:100A730001257E9D03120125C09D03120125ED9ED4
:100A8300031201254DA80212012576A802120125A1
:100A93008FA802120125D4A902120125B2AA0212BB
:100AA3000125D1AA021201255EAB02120125A1ABD9
:100AB30002120125EEAC021201258DAD02120125B1
:100AC3000CB002120125A3B00212012577B1021264
:100AD300012559B202120125C5B30212012558B4EA
:100AE3000212012544C603120125ADC603120125D6
:100AF30001C70312012528C703120125788E0312AB
:100B03000125E58E03120125308F0312012525905F
:100B1300031201252191031201250B9203120125D2
:100B2300FFD60212012541D7021201251BD802125A
:100B33000125F4D802120125EFD902120125CEDADC
:100B4300021201253ADB0212012501DC0212012502
:100B53006CDC02120125D3DC02120125FEDC021239
:100B630001256FDD0212012502DE021201256BDE73
:100B73000212012580DE02120125C8DE02120125C0
:100B8300E1DE0212012546DF0212012549DF0212CE
:100B93000125C3AD03120125EBAD0312012529AED7
:100BA30003120125E7AE0312012552AF03120125FB
:100BB3006EAF0312012596AF03120125C6AF0312D0
:100BC3000125D5AF031201254FB00312012575B0DE
:100BD30003120125E2EA01120125BFEC01120125EE
:100BE300BAEE011201258DEF01120125D8EF011292
:100BF300012523F00112012535F00112012575F0BD
:100C030001120125AAF001120125F6F001120125B6
:100C130025F10112012548F10112012595F1011277
:100C230001251EF2011201252BF40112012516F6EE
:100C33000112012559F601120125BEF70112012502
:100C4300FFF70112012572F801120125BEF8011206
:100C53000125E9F801120125CFB402120125FAB4E6
:100C630002120125E1BB0212012505BE0212012574
:100C7300C0BF021201251DC1021201258B460012BD
:100C83000125224700120125684700120125A748C4
:100C9300001201253E4A00120125B84A001201251F
:100CA300D34A00120125484B00120125774C00124C
:100CB3000125D24D00120125D44E001201253150D9
:100CC300001201254A5000120125A75000120125E8
:100CD300895100120125BC51001201252C5200122A
:100CE3000125A65200120125F55200120125C15318
:100CF30000120125C65400120125A5550012012535
:100D03003056001201259E5600120125125700127B
:100D130001253B5700120125FA570012012574598A
:100D230000120125915900120125B0590012012525
:100D3300415A00120125665A001201258E5A0012EB
:100D43000125095B00120125635B00120125B75CD5
:100D530000120125745D00120125475E0012012572
:100D63000080021201255080021201255C800212CC
:100D73000125398102120125698102120125A18110
:100D83000212012520820212012558820212012536
:100D9300AA8202120125E782021201250C850212A2
:100DA30001253887021201253389021201250E8B92
:100DB300021201251FCF031201255E9A011201259C
:100DC300A89A0112012587A00112012508A2011288
:100DD300012567A80112012562A9011201259FA916
:100DE30001120125C2A90112012504AA011201253C
:100DF3000DAA0112012517AA0112012503AB011245
:100E03000125F7AB01120125755E00120125ED687E
:100E130000120125F36800120125FF6F001201255E
:100E2300ADAA03120125ABAB0312012501AC0312DA
:100E330001253FAC031201259CAC0312012519AD1A
:100E43000312012522AD031201252EAD0312012544
:100E530041AD031201257DAD0312012593AD0312AC
:100E63000125CD9203120125DA9203120125F49292
:100E730003120125339303120125719303120125F4
:100E8300D69303120125EB9303120125F693031264
:100E930001250394031201251A94031201252894B2
:100EA300031201253394031201253F9403120125F4
:100EB3004E94031201255994031201257C940312C5
:100EC30001252595031201253595031201254F951B
:100ED300031201256C950312012588950312012540
:100EE300AD9503120125B79503120125CB95031286
:100EF3000125EA95031201254B960312012551960C
:100F0300031201255796031201255D96031201254D
:100F13006996031201259C9603120125D48D0212B2
:100F23000125568E02120125FF8E021201254790DC
:100F3300021201255592021201253B93021201254B
:100F43007093021201259293021201253B9402121F
:100F530001250B9602120125349602120125AC9647
:100F630002120125DE9602120125EB9602120125DB
:100F73003697021201255A9702120125AB990212E4
:100F83000125B59A02120125119B0212012564DC89
:100F93000112012575DD0112012559DE011201251A
:100FA30063DE0112012585DE0112012591DE0112A6
:100FB300012535E00112012562E00112012578E1E6
:100FC30001120125CDE1011201251CE301120125C6
:100FD300F1E3011201254DE401120125B8E40112E8
:100FE3000125EDE40112012530E501120125FAE79F
:100FF3000112012512E801120125A3E801120125BE
:10100300B1E801120125FEE8011201250CE90112E4
:10101300012578E901120125F3E9011201254AEAC4
:1010230001120125BA7400120125DC740012012596
:10103300ED7600120125AC7900120125D67A001253
:101043000125947B00120125807C00120125F5BC4B
:10105300031201251ABD0312012590BD03120125B8
:10106300D4EF02120125DDEF02120125E6EF021291
:101073000125BEF0021201256FF2021201259FF233
:1010830002120125CAF202120125FAF20212012507
:1010930025F30212012559F30212012585F30212E9
:1010A3000125C8F302120125F3F3021201253AF4D4
:1010B300021201258FF402120125D1F40212012537
:1010C3002BF50212012556F502120125A5F5021290
:1010D3000125D5F50212012500F6021201252EF68F
:1010E3000212012551F60212012566CC03120125D5
:1010F30092CC03120125BFCC03120125C9CC0312E4
:101103000125D9CC03120125A3E702120125ADE77E
:1011130002120125EEE70212012537E8021201252A
:1011230071E802120125C7E802120125E8E802125C
:10113300012597EB02120125A0EB02120125F4EB26
:10114300021201251DEC0212012527EC02120125D2
:1011530095EC0212012525ED0212012580ED021204
:101163000125AEED0212012536EE0212012575EEC0
:1011730002120125AAEE02120125BCEE021201257C
:10118300DBEE02120125E4EE02120125A6EF0212A4
:1011930001255BC803120125FDFD0212012533FE63
:1011A3000212012567FE02120125B4FF0212012576
:1011B300E3CC03120125F9CC0312012503CD03125D
:1011C30001254DCD031201251997031201252C97F3
:1011D30003120125F097031201252F98031201250D
:1011E3004C9803120125859803120125D298031206
:1011F30001250499031201253B99031201254E9BF6
:1012030003120125F9C1031201251CC20312012592
:101213004BC203120125E3C203120125FBC20312D1
:1012230001253DC303120125BDB003120125F4B00E
:10123300031201250BB103120125B7B103120125D6
:1012430050B203120125D8B203120125A5B303122C
:101253000125CAB303120125F4B303120125ACCD52
:10126300031201257E86011201255C8801120125E6
:10127300FB8901120125A68A01120125268B011281
:101283000125AB8B01120125D48B01120125AF8FF0
:10129300011201252690011201253D91011201251C
:1012A300779101120125B89101120125FF920112D4
:1012B30001255593011201259E93011201250D94D9
:1012C30001120125799401120125AA940112012525
:1012D300C29401120125DB9501120125EB95011240
:1012E3000125A19701120125B89701120125EA975B
:1012F300011201258C9901120125209A0112012561
:1013030052C90312012563C90312012503CA03123B
:10131300012555CE0312012594CE03120125EDFFBD
:10132300011201254ACB031201255ACB03120125D1
:1013330072CB03120125DACB0312012559C703121D
:101343000125DEC70312012542C80312012586C306
:1013530003120125AFC30312012514C4031201258F
:1013630069C403120125C4C403120125479F031254
:1013730001256C9F03120125899F03120125A69F56
:1013830003120125CB9F03120125EC9F03120125B4
:1013930016A003120125D3A00312012551A10312A4
:1013A300012578A10312012582A103120125A7A219
:1013B30003120125FCA60312012513A7031201251D
:1013C3008DA70312012571A80312012548AA031250
:1013D3000125EEFF02120125F3FF02120125FAFF98
:1013E30002120125FCFF02120125AECA03120125D8
:1013F300B0CA0312012534CB031201253FCB0312DC
:10140300012561C003120125B3C00312012526C1C2
:101413000312012593C103120125DFB8031201252D
:1014230009B903120125D8B903120125B4BA03126D
:1014330001256DDF0212012539E0021201257AE050
:1014430002120125B4E00212012512E10212012564
:1014530066E102120125C4E1021201255AE20212D9
:10146300012562E302120125ECE4021201258AE55B
:1014730002120125F1E50212012504E602120125FB
:10148300F8E60212012541E7021201255E9B0212D2
:101493000125909E0212012521A00212012578A0A8
:1014A3000212012595A00212012515A102120125A0
:1014B30091A20212012560A302120125CDA60212F8
:1014C3000125B7A702120125FEC40312012540C15D
:1014D3000212012554C102120125FFC30212012584
:1014E300C1C4021201255BC502120125B3C6021253
:1014F3000125F7C702120125FBCB021201257DCC82
:101503000212012513F90112012563F901120125C4
:1015130080F90112012571FA0112012579FB0112EB
:10152300012571FC01120125D2FE0112012526BB02
:10153300031201256BBB03120125BFBB0312012557
:1015430044BC03120125BCBC03120125D4CE0312F3
:1015530001250ECA0312012538CA031201259ECEA6
:1015630003120125D87F0012012501CF03120125A3
:101573000FAE011201252DB301E066701008A3E040
:1015830066700A08A3E066700408A3E06622C00838
:10159300C3E096F50808A3E096420808A3E0964244
:1015A3000808A3E0964208A2D265D033E50870018B
:1015B300D3D00822C3E7960809E7960809E79608F7
:1015C30009E79622C3E09608A3E09608A3E09608ED
:1015D300A3E09622C008C3E096F50808A3E096426C
:1015E3000808A3E096420808A3E09645087001D3D3
:1015F300D00822080808E630E711121EB212160EB0
:10160300080808C64480C618181822181818E9795B
:101613009EC608CAC608CBC608CCC6C37020799636
:10162300CACBCC7019798ECBCC70137986CC700E63
:10163300F9802ACA33CACB33CBCC33CC331930E746
:10164300F2CCCBCA3350147004EA30E00DE4CA3A4A
:10165300CACB3BCBCC3CCC500209C3E913C6CC1854
:101663002313C6CB18C6CA18C6F9221216AE20F029
:101673001430E72B74FFFCFBFA747F8022E4FCFB3D
:10168300FA7480801AB48008BC00F2BB00EF800FAC
:1016930050EBF9E4C39AFAE49BFBE49CFCE499C69F
:1016A300CC18C6CB18C6CA18C6F922E4C9C608CADC
:1016B300C608CBC6D3330308CCC63392F0C3947F9A
:1016C300402E94184019C9B90704CACBCC2250251F
:1016D300C309CA33CACB33CBCC33CC33D9F422F4CA
:1016E300600DC9CCC313CB13CBCA13CAD9F6CC2212
:1016F300E4FCFBFA2214FCFBFA22E6C33318461877
:1017030046184622E7C333194719471947221818C1
:1017130018E6084608700AE608C3337005E633F492
:10172300220822191919E7094709700AE709C3337F
:101733007005E733F4220922E6084608C313460876
:10174300336002E633F422E7094709C31347093339
:101753006002E733F42212173B602512174A602018
:101763001216FD7003021707080808E766701018C1
:1017730019E766700A1819E76670041819E76622F4
:10178300F42212173B601C12174A60171216FD70E1
:10179300071217077001D322C0D01217077006D0A3
:1017A300D0B322C32233D0D0501430E0F6C3E7962F
:1017B3000809E7960809E7960809E796B32220E0A7
:1017C300D5E6970809E6970809E6970809E697B367
:1017D3002212173B601B12174A60161216FD700780
:1017E300121707600CB322C0D01217077005D0D0B0
:1017F30022C32233D0D0501330E0EBC3E79608095D
:10180300E7960809E7960809E7962220E0E4E697B9
:101813000809E6970809E6970809E69722001217D0
:101823003B604F12174A6012E7548066F612171195
:101833007011121707703B090909F4F618F618F628
:1018430018F62212172670151216FD08080860EA0A
:10185300E6447FF618768018E4F618F6221216FD91
:1018630060161217077012E4F608F608F608E65435
:1018730080F609090918181822EAC0E0EBC0E0EC69
:10188300C0E0EDC0E0E687F0A4FBACF008E687F02B
:10189300A42CFCE435F0FA1809E687F0A42C4B607D
:1018A300027401CA35F0FCE433FB09E687F0D2F792
:1018B300A42CCB35F0FC1908E687F0A42BCC35F02B
:1018C300FBE433FD0819E687F0D2E7A42C4ACB35B5
:1018D300F0CD3400FC09E687F0D2E7A42DCC35F037
:1018E300FDE433FA0918E687F0D2F7A42CCD35F0DE
:1018F300CA3400FC08E687F0D2E7D2F7A42ACC3535
:10190300F07A7E20E70B0ACB33CBCD33CDCC33CC6F
:1019130033CB3350147004ED30E00ED2F1E4CD3DFF
:10192300CDCC3CCC3B5005DA05C2F1EB547FC6333A
:1019330008E63392F0FBE73309E733C39A502D2BC4
:1019430070190C0D4C4D70151806E608C333700D55
:1019530020F10AA2F013F6E418800B4024E4F630D9
:10196300F002768018F618F618F68024D33B14504C
:101973001074FFA2F013F6187680E418F618F680B8
:101983000FA2F013F618E63303F618ECF618EDF68B
:10199300D0E0FDD0E0FCD0E0FBD0E0FA2212174A01
:1019A300604612173B603DE9687008F618F618F6B2
:1019B30018F622748067F71219D40909097480672D
:1019C300F72212173B601D12174A70051919198067
:1019D3001A121711701F121726C37003E667331903
:1019E300191940071818182208080874FFF618F682
:1019F30018F618F62212172660171217077021928D
:101A0300F01216FD7019501720F014080808090980
:101A130009E7F61819E7F61819E7F61819E7F62291
:101A23001216FD60E6E869701F0808E62480F608D0
:101A3300E436F618547FB47F0CE654806007F6E46E
:101A430018F618F622181822E9C6CC08C6CD08C61F
:101A5300CE08C6CFC0E0E8C0E0EAC0E0EBC0E009D2
:101A6300E9F809E7FA09E7FBE6F918E6F8C3EC98A1
:101A7300ED99EE9AEBC2E7F5F0EFC2E795F0500E61
:101A8300600CEBCFFBEACEFAE9CDF9E8CCF8EAA299
:101A9300E7D2E7FAEB33FB13F5F0EEA2E7D2E7FE6A
:101AA300EF33FFC5F013A2E730E601B313C5F0C36C
:101AB300C0E0C0F07F00C39BFB605B9418600C40E8
:101AC3001AD0E023F9D0E0F8021BA38AF0E94860BA
:101AD30003D2F0E4AFF0FAF9F8803BEB30E40D8980
:101AE300F0EA6003D2F0E4AFF0F9CAF8EB30E30DAB
:101AF30088F0EF6002D2F0AFF0E4CAC9F8EB540704
:101B03006014FBC3EA13FAE913F9E813F8EF13506F
:101B130002D2E0FFDBEDD0E0C0E030E739C3E49F61
:101B2300FFF5F0EC98FC42F0ED99FD42F0EE9AFEE1
:101B330042F0D0E0F9D0E0F8E5F0607AE923F9EE7D
:101B430020E742D8028067C3EF33FFEC33FCED3369
:101B5300FDEE33FE80EAEC28FCED39FDEE3AFED0D3
:101B6300E023F9D0E0F84002801BC3EE13FEED132F
:101B7300FDEC13FCEF135002D2E0FF08B800067F20
:101B83007F74FF802EEF3350178CF020F00260102B
:101B93000CBC000C0DBD00080EBE000408E860DF9D
:101BA300E933E813FFEE2313FE4F4D4C8008E9544D
:101BB30080FFE4FEFDFCEE33EF33F47004FCFD7EA6
:101BC30080D0E0FBD0E0FAD0E0F8D0E0CFC618CE6A
:101BD300C618CDC618CCC6F92212173B70041818C4
:101BE300182212174A700D74FFF61819F61819F611
:101BF3001819F622E7548066F61216FD700F1217B5
:101C03000770F014F608F608F608F680D1121707E5
:101C1300700CF608F608768008E6447F80EC12170D
:101C230029700C12171460BFE65480F6E480BB12CF
:101C33001714700519191980A5E869700C763F18F7
:101C4300768018F618F6E8F922E6CDC0E018ECC065
:101C5300E0E633CD33CDD313F6E719FCE719193397
:101C6300CC33C3947F400ECD9D502408E65480F6B8
:101C7300E418F6800FF4043D14501408E6447FF68C
:101C8300187680E418F618F6D0E0FCD0E0FD22CCFC
:101C9300D313CCFD18E4C6CBC0E018E4C6CAC0E039
:101CA3000808ED08C633E613F618E433C675F003E7
:101CB300C3CA97CA09CB97CB199C40047D08802ED1
:101CC300BD0003021D8516B6FF050606081618C3D8
:101CD300CA33CACB33CB33CA27CA09CB37CB193C58
:101CE300C37D08803E187D0820E75CC633C6CA332F
:101CF300CACB33CB33DDF1D5F0EB30E77BCA97CAE0
:101D030009CB974ACB199C406F4B7025E620E02105
:101D13008066187D08C3CA97CA09CB97CB199CD391
:101D2300C633C6CA33CACB33CB3350C9DDE7D5F08C
:101D3300E1D3E4C636C608C636C608C636C608C6E4
:101D430036C61818188031C3CA97CA09CB97CB195E
:101D53009CB34097C633C6CA33CACB33CB33DD34C7
:101D6300D5F02EC6A2E0C640C8CA27CA09CB371988
:101D73004A70BECB3CB480B90808E63308E633604A
:101D83001F181818D0E0FAD0E0FBD0E0FCD0E0FD3B
:101D930022187D08CA27CA09CB37CB193CD38080C8
:101DA30013F618E4B67F11F618B6FF0EF618C6043C
:101DB30070D20808768080CAF618F618F680C5082F
:101DC3000808EAC0E0EBC0E086F0E7A4FA18098649
:101DD300F0E7A42AFA180986F0E7A42AFA18098674
:101DE300F0E7A42AFA1986F0E7A4FBE5F02AFA192A
:101DF3000886F0E7A42BFBE5F03AFA190886F0E72A
:101E0300A42BFBE5F03AFA18180986F0E7A4C5F00D
:101E13002BFBE43AFA1908E7C5F0C6A426F6E5F069
:101E23003BFBE43AFA1886F0E7A4F6E5F00826F659
:101E3300E43B08F6E43A08F6D0E0FBD0E0FA22E40B
:101E4300CFC0E0E4CEC0E0E4CDC0E0E4CCC0E075B8
:101E5300F020C3E633F608E633F608E633F608E681
:101E630033F6181818EC33FCED33FDEE33FEEF3385
:101E7300FFC3EC9709ED9709EE9709EF9719191925
:101E8300400FFFEC97FC09ED97FD09EE97FE19193A
:101E930006D5F0BEECF709EDF709EEF709EFF719F0
:101EA3001919D0E0FCD0E0FDD0E0FED0E0FF22180D
:101EB3001818E4C396F608E496F608E496F608E4E0
:101EC30096F6226016080808C6C313C618C613C6BA
:101ED30018C613C618C613C6D5E0EA227009080847
:101EE30008226016181818C6C333C608C633C608B6
:101EF300C633C608C633C6D5E0EA22E627F6080984
:101F0300E637F60809E637F60809E637F622E0264B
:101F1300F608A3E036F608A3E036F608A3E036F6A3
:101F230022E026F008A3E036F008A3E036F008A389
:101F3300E036F022C3E697F60809E697F60809E6C5
:101F430097F60809E697F622C3E096F008A3E09611
:101F5300F008A3E096F008A3E096F022E056F60816
:101F6300A3E056F608A3E056F608A3E056F622E0EF
:101F730056F008A3E056F008A3E056F008A3E05695
:101F8300F022E647F60809E647F60809E647F608A9
:101F930009E647F622E0F608A3E0F608A3E0F60810
:101FA300A3E0F622E6F008A3E6F008A3E6F008A310
:101FB300E6F022E0FAA3E0FBA3E0FCA3E0FD22EAC3
:101FC300F0A3EBF0A3ECF0A3EDF022CAC0E0E6F03F
:101FD300A308DAFAD0E0FA22CAC0E0E0A3C582CCB3
:101FE300C582C583CDC583F0A3C582CCC582C58315
:101FF300CDC583DAE6D0E0CA22C3E498F8E499F9C0
:1020030012203D8026C3E49AFAE49BFBE920E7E92A
:1020130012203DE498F8E499F922C3E498F8E4998E
:10202300F912203DE498F8E499F9C3E49AFAE49BA1
:10203300FB22EB20E7CFE920E7E0B90010BB000863
:10204300E88AF084F8AAF022E4FBC8FA22EB7022B3
:102053007B10C833C8C933C9335007C39AC3DBF2F3
:1020630080069A50012ADBEAC833F4C8C933F4C99D
:10207300FA2275F008E4C833C8C933C933C99AC909
:102083009B5004C92AC93BD5F0ECFBC833F4C8E420
:10209300C9FA22600D08C6A2E713C618C613C6D52F
:1020A300E0F322600C08C6C313C618C613C6D5E0F6
:1020B300F422700422600D18C6C333C608C633C6A3
:1020C300D5E0F41822251810AF08F51840021519A9
:1020D3008008F51840021519D2AF22C0D025181078
:1020E300AF08F518500205198008F51850020519B4
:1020F300D2AFD0D0222518F58210AF08F5184002D0
:1021030015198008F51840021519D2AF85198322D5
:102113002518F582E43519F58322E4732518C58261
:10212300C0E0E51934FFC583C0E0E518C3958224F8
:10213300F810AF088583198582188008858319856F
:102143008218D2AFCEF0A3E520F0A37808E608F01A
:10215300A3DEFAEFF0A3E58124FAF8E608F0A3E69C
:1021630008F0A3E608F0A30808E608F0A3E608F0E1
:10217300A315811581D0E0FED0E0F81581158115F6
:1021830081E8C0E0EEC0E0222518C582C0E0E51971
:1021930034FFC583C0E0E518C3958224F910AF0866
:1021A3008583198582188008858319858218D2AFA3
:1021B300CEF0A3E520F0A37808E608F0A3DEFAEF5B
:1021C300F0A3E58124FBF8E608F0A3E608F0A308F2
:1021D30008E608F0A3E608F0A315811581D0E0FE18
:1021E300D0E0F815811581E8C0E0EEC0E022851942
:1021F30083851882E0A3FEE0A3F5207808E0A3F628
:1022030008DFFAE0A3FFE0A3C0E0E0A3C0E0E0A39F
:10221300C0E0E0A3C0E0E0A3C0E010AF08858218EF
:102223008583198008858218858319D2AFD083D01E
:1022330082020122851983851882E0A3FEE0A3F5BB
:10224300207808E0A3F608DFFAE0A3FFE0A3C0E0EC
:10225300E0A3C0E0E0A3C0E0E0A3C0E010AF0885C6
:1022630082188583198008858218858319D2AFD097
:1022730083D08222C0D02518C582C0E0E51934FF7F
:10228300C583C0E0E518C3958224F310AF088583A6
:10229300198582188008858319858218D2AFC8F002
:1022A300A3E9F0A3EAF0A3EBF0A37908E709F0A30D
:1022B300D8FAECF0A3EDF0A3EEF0A3EFF0A3D0E097
:1022C300F0A3D0E0F0A3D0E0F0A3E520F0A3E5F085
:1022D300F0A322851983851882E0C0E0A3E0F9A367
:1022E300E0FAA3E0FBA37808E0F608A3DFFAE0FC3A
:1022F300A3E0FDA3E0FEA3E0FFA3E0C0E0A3E0C0F2
:10230300E0A3E0F5D0A3E0F520A3E0A3F5F010AF40
:10231300088583198582188008858319858218D2D8
:10232300AFD082D083D0E0F8D0E03274048006745A
:102333000280027401C0E0F4041220F8D0E0121FFE
:10234300CE227404800474028000CCC0E0EDC0E0AF
:10235300E518C39CCCAD1950011D10AF068C188D28
:102363001980068C188D19D2AF121FDBD0E0FDD077
:10237300E0FC22D083D082E9C0E0E493A3C386F0DB
:10238300C5F095F0F908E493A386F0C5F095F070D5
:102393000BE493A3C3994005E9048002A3E475F019
:1023A30002A42582F582E5F03583F583D0E0F9E4D4
:1023B30093A3C0E0E493C0E022D083D082ECC0E0DA
:1023C300EDC0E0E493A3FCE493A3FDED4C600D1298
:1023D3002408EC24FFFCED34FFFD80EFE493A3FC21
:1023E300E493A3FDED4C600D122447EC24FFFCEDB8
:1023F30034FFFD80EFD0E0FDD0E0FCE493A3C0E028
:10240300E493C0E022C0E0C3E4939608740193967A
:1024130018400FE4936670080874019366187000FF
:102423007019A3A3C3E49396087401939618A3A306
:10243300400DD0E0D0E0D0E00223F8A3A3A3A3A3F0
:10244300A3D0E022C0E0C0F088F0E49366700808EF
:1024530074019366187000A8F0A3A3700BD0F0D09A
:0F246300E0D0E0D0E00223F8A3A3D0F0D0E02235
:1024740074F512218BEAFEEBFFEE2434F8EF3400FE
:10248400F988088909EE2435F582EF3400F583E0F4
:10249400F8EE2437F582EF3400F583E0F50AEC8595
:1024A4000AF0A4FCAAF0850AF0EDA42AFDE82CF8B1
:1024B400E43DF97A257B0012203DEA8508828509EE
:1024C40083F05407F87401B800028004C333D8FCC5
:1024D400C0E0E0131313541FF8EE28F8EF3400F9AA
:1024E400E8245DF582E93400F583D0E0F8E0586033
:1024F40008EE2434F582EF801EEE2436F582EF34A4
:1025040000F583E0F5F0EA84A8F0EE28F8EF340053
:10251400F9E82438F582E93400F583E0F97F040210
:10252400223774F512218BEAFEEBFFEE2434F58298
:10253400EF3400F583E0C0E0EE2435F582EF34009B
:10254400F583D0E0F08E828F83A3A3A3A3A3A3A3D8
:10255400C082C0838E828F83A3A3A3A3A3E0F8A326
:10256400E0F9D083D082E0C398F508A3E099F50997
:10257400EE2480F582EF3400F583E064017069EEA7
:102584002481F582EF3400F583E0F8A3E0F98E822C
:102594008F83A3A3A3A3A3A3A3E0FCA3E0FD8E8244
:1025A4008F83A3A3A3A3A3E0FAA3E0FBC3EA9CEB5A
:1025B4009D5027C3EC98ED99402EC3EA98EB9950AF
:1025C400277CFD7D04EEFAEFFB120D12EE2480F55C
:1025D40082EF3400F583E4F0800EC3EA98EB99406F
:1025E400E0C3EC98ED9950D9EE2434F8EF3400F9B7
:1025F400E8FCE9FDEE2435F582EF3400F583E0F8DC
:10260400EE2437F582EF3400F583E0F50AE508851A
:102614000AF0A4F508AAF0850AF0E509A42AF50948
:10262400E82508F8E43509F97A257B0012203DEA0B
:102634008C828D83F05407F87401B800028004C3BF
:1026440033D8FCC0E0E0131313541FF8EE28F8EF5E
:102654003400F9E8245DF582E93400F583D0E0F82C
:10266400E0586008EE2434F582EF801EEE2436F53F
:1026740082EF3400F583E0F5F0EA84A8F0EE28F860
:10268400EF3400F9E82438F582E93400F583E0F901
:10269400122C3C022521C082C083851882851983AF
:1026A400E0F8A3E0F9C3EA9CEB9D5012C3EC98ED6B
:1026B400994019C3EA98EB99501279018010C3EA42
:1026C40098EB9940F5C3EC98ED9950EE7900D083DE
:1026D400D08222EAC39CFAEB9DFB220085218785E8
:1026E40022C622C0E0C0D0E8C0E0E9C0E0EAC0E011
:1026F400EBC0E0ECC0E0EDC0E0C008C009C00AC017
:102704000BC082C083C0F0759B00906182E0A2E69A
:1027140040030227C5E591A2E640030227C575914F
:10272400BF9003C2E064057008120E3E120E4A8088
:1027340003120E44752100120E9EE99003C3F07932
:1027440000120E92120C887A017B009003C1E0F90A
:10275400121168907803E06442600302280E900529
:102764005FE014F0600302280EC2AF1227720078F3
:102774002AD0E0F618D0E0F6E59F5407F9700590EA
:1027840085C680039085CA7808121F98E9C4C0E002
:102794007829E65508F50808E65509F509740B7813
:1027A400081220A6D0E02508F8906270E0A2E74065
:1027B400F8E8C333906272F0906270E0D2E0F08087
:1027C40049E0A2E55024E591A2E5501E7591DF9001
:1027D40003C2E0640D70139003E4E004F064287015
:1027E40002E4F07A00E0F9120F10906181E0A2E3B4
:1027F4005009E5E9A2E3500375E9F7A3E0A2E75025
:1028040009E591A2E7500375917FD0F0D083D0827F
:10281400D00BD00AD009D008D0E0FDD0E0FCD0E045
:10282400FBD0E0FAD0E0F9D0E0F8D0D0D0E032C06C
:10283400E0C0D0C082C083906183E0A2E05009E58B
:10284400BFA2E0500375BFFEE0A2E15009E5BFA2BC
:10285400E1500375BFFDE0A2E25009E5BFA2E250DA
:102864000375BFFBE0A2E35009E5BFA2E350037583
:10287400BFF7E0A2E45009E5BFA2E4500375BFEF3F
:10288400E0A2E55009E5BFA2E5500375BFDFE0A271
:10289400E65009E5BFA2E6500375BFBFD083D082DE
:1028A4008088C0E0C0D0E8C0E0E9C0E0EAC0E0EB66
:1028B400C0E0ECC0E0EDC0E0C0F0E5A7A2E6500F38
:1028C400E5A1A2E6500953A7BF75A1BF12290BE5E4
:1028D400A7A2E5500CE5A1A2E5500653A7DF75A118
:1028E400DFE5A7A2E15009E5A1A2E1500375A1FD2E
:1028F400E5A7A2E2500CE5A1A2E2500653A7FB759E
:10290400A1FBD0F002281C74F812218B75210190D0
:1029140003C2E064067015120DDE8A828B83A3A3C2
:10292400A3A3A3A3E0FAA3E0FB120E2CA2AFE4330B
:10293400FED2AF9003C8E0640170187A207B009047
:1029440003C1E0F91211EC7A207B009003C1E0F995
:1029540012116E906182E0D2E6F090055EE0602193
:1029640085C62280169003C7E064017008E5C6544A
:10297400F84405F5C653BEFC1226E07401652160D7
:10298400E4EEA2E092AF7F01022237008E238F246F
:10299400858228858327851882851983E0CEA3E064
:1029A400CF852882852783EBC9EAC8EDCBECCA75AD
:1029B400F010C3E833C8E933C9EA33CAEB33CBC3F5
:1029C400EA9EF526EB9FF525B35004AB25AA26EC29
:1029D40033CCED33CDD5F0DAAE23AF242274F1122B
:1029E400218B8A088B098C0A8D0B740F12211378A2
:1029F4000C121F989085AE7808121F5F9085AE78F0
:102A04000C121F5F7808790C1215B75015780879E5
:102A14000C121F379085FE78081215D740157901DE
:102A24008013780C7908121F379085FE780C1215E4
:102A3400D740EB79007F0802223774ED12218B8A8C
:102A4400088B098C0A8D0B7413122113780C121F36
:102A5400989085AE7808121F5F9085AE780C121F8F
:102A64005F780C79081215B740117808790C121F99
:102A740037AA08AB09AC0AAD0B802275100075119A
:102A8400007512007513017810790C121F37781035
:102A94007908121EFEAA10AB11AC12AD137F0C0202
:102AA40022379085AE7808121F988A828B83780823
:102AB400121F727F0402223774F512218B8C828DCF
:102AC400837808121F988A828B837808121F4BEA36
:102AD4002404F8EB3400F98C828D83A3A3A3A3E030
:102AE400FCA3E0FD88828983C3E09CF0A3E09DF011
:102AF40088828983C3E09420A3E0944E4022908589
:102B0400A27808121F988A828B837808121F248A5D
:102B1400828B83A3A3A3A3E02420F0A3E0344EF08C
:102B2400808074F512218BE9FE900514E0FAA3E08D
:102B3400FBEEC333F8E433F974A928F582748339BE
:102B4400F583E02AF508A3E03BF50978081223325F
:102B540090859E121FB612299074021220DE8A08F4
:102B64008B098C0A8D0B74107808121EC6AA08AB48
:102B7400097F0402223774F112218B8A0C8B0D8C8D
:102B84000E8D0F740F122113E0FAA3E0FB741112DF
:102B94002113E0F508A3E0F5097413122113E0FEF4
:102BA400A3E0FF7808122332EA2401F508EB34008D
:102BB400F509E4F50AF50B780C7908121DC2908624
:102BC400067808121F98780C7908121DC2AA0CAB5B
:102BD4000DAC0EAD0F12299074021220DE8B09EA9F
:102BE400450960047A0180027A00EC2AFCED340085
:102BF400FDECF8EDF97A717B0212203D8808890911
:102C0400E4F50AF50B8E828F837808121FA7ECF87F
:102C1400EDF97A717B0212203D8A088B09740578DC
:102C2400081220B58E828F83A3A3A3A3E508F0A383
:102C3400E509F07F08022237C082C083E990600072
:102C4400F0D083D08222C0E074F2122277A2AFE4E3
:102C540033FED2AFE589A2E15003121366758900F1
:102C6400C2C5EEA2E092AF7F010222D6C0E074F2A8
:102C7400122277A2AFE433FED2AFE58BA2E0500379
:102C8400121366758B00C2E880D8C0E0C0D0E8C0DB
:102C9400E0E5A8D2AFC2C7A2E792AFD0E0F8D0D0A7
:032CA400D0E0324B
:102CA800FFFFFFFFFFFFFFFFC082C083E9900A8E8E
:102CB800F0022F3474F712211FE99002E0F07C181B
:102CC8007D037AFF7BFF1209B89002E174FFF0A33D
:102CD800F0A3E4F0A3F079051209409002E0E0F9CE
:102CE8001208687AD67B09120B98023C4274F412D7
:102CF800211F8A088B09EB548060309002E0E0F9CC
:102D08001211508A0A8B0BAE0AAF0BEE4F60138E6E
:102D1800828F83E064B07003120958EEFAEFFB1259
:102D2800113EAA08E5096480FB80047A007B000252
:102D38002F0374F212211F74FC1220C8EAFEEBFF65
:102D48007412122113124129EE4F7003022DDD7403
:102D580002122113EEF0A3EF12313EECF0A3ED12B4
:102D6800313EAA82AB83120862E9F50A706AE50867
:102D7800450960648E828F8312410FEE4F60567A48
:102D8800067B001211A48A0C8B0DA80CA90DE8492A
:102D98007005750A13804188828983E4122DEAEE52
:102DA800F0A3EF12413AE508F0A3E509F09002E636
:102DB800122E719002E67005123BEC801B123BDA72
:102DC8008003EAFCEBFD8C828D83122E7170F38CEC
:102DD800828D8380E3750A02A90A74041220DE0238
:102DE8004329F0A31240E0A32274F212211F890A9A
:102DF800E975F017A4FEAFF09002E5E4F09002E365
:102E0800122E71600A1211AA9002E3E4F0A3F0EE08
:102E1800FAEFFB1211A48A088B09EA4509602FEE24
:102E2800FCEFFD79001211269002E3E508F0A3E516
:102E380009F07B008008122E5BE4F0A3F00BEBC3D3
:102E4800950A40F2E50A9002E5F0790080027913CC
:102E5800024329EB75F017A4F8A9F09002E3E028E3
:102E6800FAA3E0398A82F5832212387EEA4B22746B
:102E7800F412211F740C122113124104FEE9FF758C
:102E88000800750900800CE5082401F508E50934F7
:102E980000F509C3E5089CE5099D503285080A85B7
:102EA800090B7403780A1220B5EA250AF8EB350BEA
:102EB800F988828983A3A3A3A3A3A3123CC1EE65C7
:102EC8000A7003EF650B70BFE8FAE9FB80047A002B
:102ED8007B00802774F412211F7900EAA2E0501BBE
:102EE80075085675098578081223327C047D007AA6
:102EF800907B0A12093A74021220DE7F040221F143
:102F0800C082C0839002E6122F3B601C88828983AE
:102F1800A3A3E06A7003A3E06B8882898370E8A3A7
:102F2800A3A3A312387A80047A007B00D083D082CE
:102F380002012212440FE8492274EE12211F74FC88
:102F48001220C8EAFEEBFF851882851983E4F0A3F6
:102F5800F0EE2402123BCCEE24051240E7EE2404E6
:102F6800F50EEF1234F3E024FE603924FC604624A9
:102F7800FE605224FE605E24FE700302305424FE7C
:102F880070030230B824FE70030230C724FE7003B9
:102F98000230D624FC70030230E524FE70030230B0
:102FA800F40231319002FF7417F0A3E41231461293
:102FB80005E0023131851882851983AC82AD831210
:102FC800095E023101851882851983AC82AD8312AE
:102FD8000964023101850C08850D09740212211358
:102FE800AC82AD8385088285098312387A120886F7
:102FF8008A0C8B0DAC0CAD0DEC4D603BE4F50CF57B
:103008000D780C122332750CFF750D02780C122303
:1030180032750C00750D03780C12233274081221D6
:103028001312234912458B1220DEE9F50C700B129E
:1030380038701205F8800F750C01850882850983A0
:10304800123134123BEC850C08023104740212214F
:1030580013AC82AD83850C82850D83123645603CA6
:10306800850C82850D83A3A31223497510FF751162
:10307800027810122332751000751103781012238C
:1030880032740812211312234912458B1220DEE9EB
:10309800F509700B1238701205FE800F750901854D
:1030A8000C82850D83123134123BEC850908804C63
:1030B800851882851983AC82AD8312096A803A85A6
:1030C8001882851983AC82AD83120970802B85180C
:1030D80082851983AC82AD83120976801C8518829B
:1030E800851983AC82AD8312097C800D8518828591
:1030F8001983AC82AD83120982E9F508E5086029D5
:103108008E828F83A3E06414601F850E82850F83EF
:10311800E09002FF12313E12440B900300123BEC88
:10312800E508A31231461205DA023ADB12440F858C
:10313800188285198322F085188285198322F07CEC
:10314800FF7D02850A82850B8312387E2274EE1277
:10315800211F74FC1220C88A0A8B0B8C0E8D0FEA73
:103168002405F508EB3400F5097C157D0079007A13
:10317800FF7B02121126E5082402F50CE50912402E
:10318800EA85188285198385821085831178101243
:103198002332850882850983A3A3A3A312363C1290
:1031A8002332E5082405F510E5093400F5117810F7
:1031B800122332850C82850D83123991120880748E
:1031C800061220DE8A108B11AE10AF11E50A240218
:1031D800F50AE50B123BCFEE4F700302331380174D
:1031E800740212211312387A88828983EAF0A3EBD9
:1031F800F09002FFE004F09002FFE0C39405400362
:10320800023313E4F510F51178101223327510E823
:1032180075110278101223327510E97511027810B1
:1032280012233274061221131223497910EEFCEF8F
:10323800FD12458D1220DEE9705E850882850983BE
:10324800A3A3A3A3A3A3A3E0F89002E8E0687048AF
:1032580012363C1223327CE97D02E5082408FAE59F
:10326800093400FB12112074021220DEE960298E55
:10327800828F83A3A3A3A312387A9002FFE0F510EC
:10328800740278101220B574002510F58274033585
:1032980011F583EAF0A3EBF0740212211385821072
:1032A80085831178101223327402122113122349D4
:1032B800850C82850D831238A01220DE8A108B11AE
:1032C800AE10AF119002FFE0F5107511007402788E
:1032D800101220B574FF2510F874023511F9888290
:1032E8008983A3122E7170030231DFE824030808D2
:1032F80008E93400F9EE4F60030231E888828983D7
:1033080074FFF0A3F09002FFE004F09002FFE06089
:103318000A1238701205EC7900800B85088285093D
:1033280083123BE3790A023ADB74EA12211F74FE26
:103338001220C88C128D13EA2405F50CEB12457582
:10334800124113750800750900EA2402F510EB34E0
:1033580000F51185188285198385820A85830B7883
:103368000A122332850C82850D83A3A3A3A31235E9
:1033780009122332E50C2405F50AE50D123BCF7836
:103388000A122332850C82850D8312350D120880AE
:1033980074061220DE8A0A8B0BEA450B700302348E
:1033A800AEEA2404F50EEB1234F31241138A828B31
:1033B80083A3A3A3E0F98510828511831238846062
:1033C800030234AEE4F514F515781412233275149B
:1033D800E875150278141223327514E97515027808
:1033E8001412233274061221131223497913AC0ADA
:1033F800AD0B8510828511831245931220DEE9F505
:103408000960030234AE9002E8E0F8E5087009E0CC
:103418002402900300F08014900300E0FCE82402EA
:10342800FAE43400FBEA6C7001EB707E850882AA2E
:1034380082123633941412362B506B850E82850F08
:1034480083E0C0E074012A1234EAD0E0F005088570
:103458000E82850F83A3E0C0E085080A7401250A5F
:103468001234EAD0E0F005089002E8123509122378
:10347800327CE97D0285080A7401250A1234FD129E
:1034880020DE9002E8E02508F50874FF6E700374EA
:10349800FF6F6012EE24010EEF3400FFE508C394BD
:1034A80014500302335BE508601312388E851082CE
:1034B80085118312387A1205F279008014E50970B3
:1034C8000375090A851282851383EEF0A3EFF0A92C
:1034D8000974021220DE7F0E0221F185080C7401A6
:1034E800250CF58274033400F583223400F50F852A
:1034F8000E82F58322FA74033400FB12110E740253
:103508002212414922A3A312351322123BDAFDEEFF
:10351800FAEFFB2274EE12211F74FE1220C88C0EE3
:103528008D0FEA2405F50CEB1240EA750B009002AA
:10353800FFE4F0F50AEA2402F508EB3400F5098007
:10354800449002FFE0FA9002E8E0F812363394174C
:1035580012362B400D9002FFE0F87416C3989002C3
:10356800E8F012363C1223327CE97D0274002AFA14
:1035780074031235001220DE9002E8E0F89002FF92
:10358800E028F0050AE50C2416F582E50D1234EE64
:10359800E0F8E50AC39850749002FFE0C39416500F
:1035A8006BE50AC333F8E433F9E50C28FEE50D3979
:1035B800FF851882851983AC82AD838E828F831232
:1035C80036457008750B01123BDF8050E4F510F5A5
:1035D8001178101223327510E87511027810122331
:1035E800327510E97511027810122332740612210F
:1035F8001312234979168508828509831245931287
:1036080020DEE9F50B700302354980BB7CFF7D02A3
:1036180085088285098312387A120604A90B740278
:10362800023ADDE99400C365D03322EA28F8E4348D
:1036380000F9E822E0F510751100781022123AD24C
:103648008A108B11AC10AD11EC4D2274EA12211FB7
:1036580074FC1220C88A0C8B0D8C128D13EA240579
:10366800F50AEB123BCF750800750900E50A24023C
:10367800F510E50B3400F511740212211385820E42
:1036880085830F780E122332850A82850B83A3A3C4
:10369800A3A31240EF122332E50A2405F50EE50B29
:1036A8003400F50F780E12233285108285118312AB
:1036B8003BD512387412088074061220DE8A0E8BED
:1036C8000FAE0EAF0FE50C2402F50EE50D3400F534
:1036D8000F80388882898374FFF005081234E374F8
:1036E800FFF005089002E8E0F50C750D00780C1263
:1036F80023327CE97D0285080C7401250C1234FD07
:103708001220DE9002E8E02508F508EE4F60278ECB
:10371800828F83A3A3A3E0F9850E82850F831238D5
:1037280084EE24041240E7E96027850C82850D8326
:10373800123866123BECE508700302384C12388EDA
:10374800850E82850F8312387A12060A79000238AC
:1037580061E4F514F51578141223327514E875151B
:103768000278141223327514E9751502781412239D
:103778003274081221131223497911EEFCEFFD85EA
:103788000E82850F831245931220DEE9F509709A9F
:10379800850882AA82EA9002E87009E0240490036E
:1037A80000F08025E0F8900300E0F514E82404FC1C
:1037B800E43400FDEC65147001ED70811236339429
:1037C8001212362B4003023745850C82850D83E0A3
:1037D800C0E074012A1234EAD0E0F00508850C82B2
:1037E800850D83A3E0C0E01234E3D0E01238A98548
:1037F800820C85830D780C12233274041221131263
:1038080023498510828511831238A01220DE8A0C84
:103818008B0DAE0CAF0D85080C7401250CF87403E4
:103828003400F9EE4F70030236DB85188285198360
:10383800E0888289831238A9A3E0C0E01234E3D07B
:10384800E00236E9E509700375090A850A82850BE5
:1038580083123866123BECA90974040234DB124463
:103868000F851282851383227CFF7D02850A82855B
:103878000B8312387E22E0FAA3E0FB2212387E1274
:10388800086EE9F50922900300E0F5F0E508849058
:1038980002FFF07CFF7D022212351312088C74049B
:1038A80022F005088518828519832274EC12211FDD
:1038B80074FE1220C88A088B098C0E8D0FEA240525
:1038C800FEEB3400FF123ABCEE24181240E7EA453A
:1038D8000B700302395F123AA550291239848A10F5
:1038E8008B11EA4511606B7912AC0AAD0B85088221
:1038F80085098312387A85108285118312211DE982
:10390800F50A7058E4F50AF50B780A1223328E820C
:103918008F83A3A3E0F50A780A122332EE24031258
:103928003BCC780A1223328E828F83123991120986
:10393800A674061220DEE9F50A7021850C82850D31
:1039480083E0701F85088285098312387A12061071
:103958008011750A0E8009750A018004E50A600362
:10396800123BDF850C82850D83E0600479008002BC
:10397800A90A74021220DE7F0C0221F185188285C3
:10398800198312387E12099422123BDAFD850882C7
:1039980085098312387E2274EE12211F74FE1220CC
:1039A800C88A088B098C0C8D0DEA2405FEEB3400BF
:1039B800FF750E00123ABCEA450B7003023A8312F7
:1039C8003AA5502C1239848A0E8B0FEA450F604AAB
:1039D8007912AC0AAD0B85088285098312387A857D
:1039E8000E82850F8312211DE9F50E6003023A86C7
:1039F800850882850983123CC1AA0AFB123A97708E
:103A0800147AFF7BFF123A97606C88828983E50AF3
:103A1800F0A3E50BF0750A008007750E0E805F05B0
:103A28000A9002E5E0FAE50AC39A504AE50A75F0F9
:103A380017A4FAABF088828983A3A3E02AFAA3E04B
:103A48003BFB8A828B83123BD5EC4D70D2750A17EB
:103A5800750B00780A122332EEFCEFFD12110E747A
:103A6800021220DEEEFCEFFD8508828509831238FC
:103A78007A1206168014750E098003750E01124419
:103A880007850C82850D83123BECA90E023626129F
:103A980009888A108B11A810A911E84922E5082481
:103AA80002F508E5093400F5098A828B83A3A3A3EC
:103AB800E0A2E522851882851983AC82AD838E82C7
:103AC8008F83123AD28A0A8B0B22E0FAA3E0FB1208
:103AD80008862274041220DE7F0A0221F174EC1297
:103AE800211F8C108D11EA2405F50CEB1240EA75A4
:103AF8000F00EA2402F50AEB123BCF850A82F58310
:103B080012387A1246197003023BC1750E00807193
:103B1800850C82850D83E06401704F8E828F83A3AC
:103B2800A31223498E828F83A3A3A3A3E0F5127562
:103B380013007812122332EE2405F512EF3400F543
:103B48001378121223321238741209A6740612203E
:103B5800DEE9F50F6014850C82850D83E4F01244CC
:103B680007851082851183123BEC7C177D00790054
:103B7800EEFAEFFB1211268E828F83E4F0A3F00594
:103B88000E9002E5E0F8E50EC398501EE50E75F0BC
:103B980017A4F8A9F0850882850983A3A312457F95
:103BA800123BD5EC4D6003023B18850882850983DA
:103BB80074FFF0A3F0E50F700612387412061CA902
:103BC8000F02397FF50AEF3400F50B22A3123BDA16
:103BD800FD22E0FCA3E0228E828F8312440F850E23
:103BE80082850F83E8F0A3E9F022C082C0839002A7
:103BF800E1E06A7003A3E06B70067AE17B0280045F
:103C08007A007B00022F3474F712211F7F00EF75B2
:103C1800F003A4F8A9F0EC28F8ED39F98882898333
:103C2800E06A7003A3E06B7006E8FAE9FB800B0F0B
:103C3800EFC3940240D87A007B007F010221F1741F
:103C4800F612211F1241F870067A007B008007A344
:103C5800A3A3A312387A0242B974F212211FE9FE13
:103C6800740E122113123CC174101221131241292F
:103C78008C828D83E06402703BA312440B88828996
:103C880083E0F50CA3E0F9A80C74026870037429AA
:103C9800697021750C02750D00780C1223327808B2
:103CA800122332780A122332EEF91209CA74061264
:103CB80020DE80027901024329E0F50AA3E0F50B32
:103CC8002274E812211F74FB1220C8E98518828526
:103CD8001983F08A168B178C0E8D0F741F122113FF
:103CE8001241297421122113123CC1742312211389
:103CF8001241137510008C828D83A3A3A3E0A2E464
:103D0800502A741D12211312398A8A828B83E58204
:103D180045837003023DD5790AAC0EAD0FAA16ABE8
:103D28001712211DE9F5106003023DD8850E828522
:103D38000F83E06402600302408EA312440B8508DF
:103D480082850983A3858212858313E50E2406F5EF
:103D58000CE50F1240EA88828983E0FAA3E0F9EAC9
:103D68002400F514E439F51578141223BC01000079
:103D78002801289D3D07000228743E0328E43D00E1
:103D8800299E3F0129C63F02296D3F03299E3F0412
:103D9800292F408E40EE4F703E850C82850D831290
:103DA8004104FAE9FB8A828B83E0850A82850B83CA
:103DB8001241401223328A828B83A3123BDAFDAA76
:103DC80008AB0912110E74021220DE800375100E62
:103DD800A910740502456D75100B80F4EE4F70F74D
:103DE800850A82850B837401F01241198508828542
:103DF8000983F07C007D00850E82850F83A3A3A331
:103E0800A3E02401FAA3E03400FB120886EA4B6021
:103E1800418A828B83E02402F8850A82850B83E03D
:103E280028F0EA2404F8EB3400F988828983E085D5
:103E380012828513831241521241401223328A8220
:103E48008B83123BD4E5082403FAE5093400FB020E
:103E58003DCB850A82850B83E02404F07C047D0039
:103E68007900AA12AB13121126023DD8EE4F600357
:103E7800023DDF124119FEA3E0FF850A82850B830C
:103E88007404F0EE850882850983F0EF8512828537
:103E98001383F07403122113AC82AD83EEFAEFFBA7
:103EA8001241E67003023F4A8A828B83A3A3124120
:103EB8000F740112211385820E85830F780E122349
:103EC8003274051221131223497CFF7DFF12088CDE
:103ED80074041220DE8B0FEA450F7033850C82853F
:103EE8000D831240EF122332850C82850D83A312B5
:103EF80023497C027D007A4A7B861206B874041234
:103F080020DEE9700A740112211374FFF0A3F08E09
:103F1800828F83E064027034750C02750D00780C92
:103F28001223328E828F83123BD4E5082404FAE5EB
:103F3800091235001220DE850A82850B83E02402EF
:103F480080097401122113EEF0A3EFF0740112211D
:103F580013124100F07401122113A31240F8A3A315
:103F6800A3F0023DD8EE4F6003023DDF850C828549
:103F78000D83123BD5AA16AB171209BE850A828596
:103F88000B837402F0EA850882850983F085128222
:103F9800851383EB80CBEE4F6003023DDF1241199E
:103FA800F8A3E0F9850A82850B837402F0E8850896
:103FB80082850983F0E985128285138380A3850CA5
:103FC80082850D8312387A121108EAFC8C82A88245
:103FD800C39EE49F404BE86E7001EF70047C008044
:103FE8001F851882851983E0FAEE2AFAEF3400FB60
:103FF800C3EA98EB94005003E08004EECCC39CFC29
:10400800EC850A82850B83F08C0A750B00780A12FE
:104018002332850C82850D83E02EFCA3E03F023D10
:10402800C6751007023DD8EE4F6003023DDF850CD0
:1040380082850D8312440B850A82850B837407F0F1
:10404800888289831240F81240E0E0851282851345
:1040580083F0E82402FAE93400FB8A828B83124059
:10406800F8124131124100A312413A124109F0E815
:104078002405F8E93400F988828983124109A312DA
:104088004152A3023F66741D1221131241F17003BD
:10409800023DD512440B880C890DE8450D700302CA
:1040A8003DD58E108F117810122332780A122332E0
:1040B80078081223327406122113E0F9AC0EAD0F02
:1040C800AA16AB17850C82850D8312211D74061262
:1040D80020DEE9F510023DD8F088828983A322F515
:1040E8000CEF3400F50D22E0F50E750F00780E2266
:1040F800E0850882850983221241592212440FE87B
:1041080022124159A3A322A3A3A3A3E0FEA3E0FF85
:1041180022850C82850D83E0F8A3E0F5838882E090
:1041280022E0F508A3E0F50922A3A3F08A828B8395
:10413800A322122DECA3A322F08A828B8312414979
:1041480022E0F50A750B00780A221240E012415964
:1041580022E0850882850983A3A32274EE12211F19
:1041680074FE1220C88A0A8B0BECFAEDFB74141249
:104178002113E0F510A3E0F5117416122113E0FEE7
:104188007418122113E0F50EA3E0F50F8518828547
:104198001983AC82AD831241E6603E851882851989
:1041A800831241F1602FA3A3124129E50845096054
:1041B80024780E1223327810122332EEF9AC0CADAB
:1041C8000DAA0AAB0B85088285098312211D740488
:1041D8001220DE8006790E80027901023626120846
:1041E800868A0C8B0DEA450D2212387E1241F82280
:1041F8001209528A828B83E58245832274F6122142
:104208001F74FE1220C8740C122113124104851861
:1042180082851983F07401122113E9F0E4F508F599
:1042280009780812233275080278081223327404B8
:10423800122113858208858309780812233212090E
:10424800A674061220DE74021220DE806474F7124F
:10425800211FEAFEEBFF89087C187D031209BEEADC
:104268005402600BA908EEFAEFFB12087A80027973
:1042780001023C4274F612211F74FF6A700374FF36
:104288006B701C7B00EB75F003A4F8A9F0EC28F820
:10429800ED39F91242BE0BEBC39402501480E612BA
:1042A800098E8A088B09A808A909E84960031242FF
:1042B800BE7F020221F18882898374FF122DEAE40D
:1042C800F02274F612211F12098E8A828B83E582EE
:1042D80045836006A3A3E0FA80027A007B0080D1C0
:1042E80074F212211F8A088B09ECFEEDFF740E127E
:1042F8002113E0F50A12432E701CEEFCEFFD7AFF45
:104308007BFF12432E70047911801688828983E519
:1043180008F0A3E509F088828983A3A3E50AF07968
:10432800007F060221F112098E8A0C8B0DA80CA9B8
:104338000DE8492274EE12211FEAFEEBFF8C088D6E
:1043480009890C741212211312440B7414122113CC
:10435800123BD5741612211312387A750D00EC4DE4
:1043680060030243FF7402650C60030243FA88820B
:104378008983123BDAF9EC2400F50EE439F50FEAEB
:10438800F4F8EBF4F9EC58F8E50F59F9E849705DE1
:10439800E5082406F8E5093400F9880A890B8882BB
:1043A800F58312350F1209BE8A108B11E50E6510C0
:1043B8007004E50F65116042780E122332850A8277
:1043C800850B8312350F1209C474021220DEE9F539
:1043D8000D7027780E122332850882850983A3A3DE
:1043E80012350D1209DC74021220DE800D750D8065
:1043F8008008750D0D8003750D0BA90D023AE08E2E
:10440800828F8312440F22E0F8A3E0F92274E812A5
:10441800211F74E71220C8851882851983EAF0A342
:10442800EBF08C168D17890E7431122113E0F512FA
:10443800A3E0F5137433122113E0F514A3E0F51586
:104448007435122113E0F50F750800750900E509A8
:1044580075F003A4F8A9F085188285198312457FA1
:10446800E0F47003A3E0F4700302455DEE2402F566
:104478000CEF124575E0700302455D85160A851735
:104488000B780A122332AC14AD15AA12AB13120919
:104498004674021220DE8A0A8B0BEA450B7003026F
:1044A800455DE4F510F511781012233274061221D7
:1044B8001385821085831178101223327409122112
:1044C8001385821085831178101223328512828514
:1044D8001383A3A3A3A31223497914AC0AAD0B8EAB
:1044E800828F831245931220DEE97069850A8285DE
:1044F8000B83A3A3A3A312440B7402122113123B30
:10450800EC850C82850D83E0A2E05018A90E740298
:10451800122113AC82AD838E828F8312387A1208EF
:104528009EE94208850C82850D83E0A2E15026E5CC
:104538000FF50A780A122336A90E7403122113AC58
:1045480082AD838E828F8312387A12089874011292
:1045580020DEE942080509E509C394025003024434
:1045680056A90874191220DE7F100221F13400F5D3
:104578000D850C82F58322E028FEA3E039FF8E82A8
:104588008F83227916850A82850B8312387E120959
:10459800A074082274F212211FEAFEEBFF890B7443
:1045A80001650B600E7402650B70637901120BB61E
:1045B800E9705BEEFAEFFB1246196047750A008056
:1045C8000B7C177D007900121126050A9002E5E0A0
:1045D800F8E50AC3985021E50A75F017A4F8A9F080
:1045E800850882850983A3A3E028FAA3E039FB8A1A
:1045F800828B83122F3B70C985088285098374FFDB
:10460800F0A3F07C187D03EEFAEFFB1209B8024321
:10461800291209888A088B09EA45092274F21221AD
:104628001F8A088B09ECFEEDFF740E122113123C51
:10463800C1900A8EE0F4603D7A097B00121138EAD5
:104648004B60328A828B8374B1F0A3E4124133A3A6
:10465800124131A3E508F0A3E509124680EEF0A364
:10466800EF124680A3A3E50AF0A3E50BF0900A8EAB
:10467800E0F9121144024329F08A828B83A3A3A391
:10468800A3A322C082C0839061907404F0A37448ED
:10469800F0A37402F09061807440F09061BC7403E0
:1046A800F09061877419F0906265741BF090619CBA
:1046B800740DF090619A7433F0A37455F09061A072
:1046C800743AF090055CE064017009C2919003C6E9
:1046D800746780059003C67461F0902CAEE49390E3
:1046E8006186F0902CA8E493F46027E493540FF8C3
:1046F800906185E0686012E5C654804449F5C6E5D6
:104708009E547F644970F8E8F053C680E59E547F54
:1047180070FA7905120EF20248A0C082C083E5A89B
:10472800F853A87E906181E4F0A3F0A3F0C2BA53D5
:104738009AFEC289759B00C2C275E9007591007521
:10474800BF0075A91175B905906181F0A374C0F017
:10475800A3E4F0D2BA439A0174805842A80248A050
:10476800C082C08374F81220C89003C4E0F8A3E0A4
:10477800F9E84970030248969003C4E05440602366
:104788007908851882851983AA82AB83120D6C85F6
:104798001882851983AA82AB83120A489003C4E061
:1047A80054BFF0E054806010790C7A807B05120DBC
:1047B8006C9003C4E0547FF0E0A2E0503190619A1D
:1047C8007433F0A37455F09061A0743AF090055CCE
:1047D800E064017009C2919003C674678005900374
:1047E800C67461F0120A4E9003C4E054FEF0E0541F
:1047F80002603190619A743FF0A3745AF09061A0FE
:10480800747FF090055CE064017009D2919003C652
:10481800747180059003C6746AF0120A4E9003C43E
:10482800E054FDF0E054046013902CACE4939061E4
:1048380086F0120A549003C4E054FBF0E054086078
:1048480013902CADE493906186F0120A549003C43F
:10485800E054F7F0E054106013902CAEE4939061AC
:1048680086F0120A549003C4E054EFF0E05420603C
:104878000A120A549003C4E054DFF0A3E054016024
:104888000D120C94120A5A9003C5E054FEF07408F5
:104898001220DE8003F0A3F0D083D08202012274BC
:1048A800EC12211F74F41220C8851882851983AC74
:1048B80082AD837583857582B67404121FDB902CD4
:1048C800AC93F46003024A34907808E0C394025031
:1048D80003024A147404122113AC82AD83758385D4
:1048E8007582477408121FDB8518828519838582B3
:1048F800128583137404122113AC82AD83750EFFE5
:10490800750FFF7FFF7E00750C48750D7880157454
:10491800086E70030249A774096E70030249A774F0
:104928000A6E607B850C82850D837808121F988C2F
:10493800828D83A909E50AC9F888107418780812C5
:104948001EC6E5104508F8C3E098A3E099850C82D7
:10495800850D837808121F9840188C828D837418EF
:104968007808121EC6E5104508F8E0C398F8A3E0D9
:10497800801C74187808121EC6E5104508FAE9FB71
:104988008C828D83E0F8A3E0F9EAC398F8EB99F9F3
:10499800C3E8950EE9950F5006880E890FEEFF0EB5
:1049A800E50C2404F50CE50D3400F50DEEC3941365
:1049B800500302491774FF650E700474FF650F6099
:1049C800238F08740278081220B574482508F582E8
:1049D80074783509F5837808121F98851282851333
:1049E80083E508F0EC24020C0CED3400FD851282FE
:1049F800851383A3858212858313740C122113E512
:104A0800826C7003E5836D600302490575080175C2
:104A1800090078081223327402122113AC82AD8384
:104A28007A2B7B0B12134274021220DE740C1220B4
:104A3800DE7F0C0221F1C082C0839061AE7468F001
:104A4800A3746AF090624574FBF0A304F053F4FD7C
:104A580043FE0290055C7401F09061A0E0643A9016
:104A6800619A70237433F0A37455F09061A0743A7E
:104A7800F0740164017009C2919003C674678028BC
:104A88009003C674618021743FF0A3745AF090615A
:104A9800A0747FF0740164017009D2919003C67408
:104AA8007180059003C6746A02489F7F040221F151
:104AB800C082C08390050EE06401700A900513E07F
:104AC8006004790C800279000248A0C082C0837516
:104AD800E1F1900511E06055146008146059146004
:104AE800518059120CA6900507E0F97A087B051247
:104AF8000E749085BA121FB6120EAA9085A6121FC0
:104B0800B6120E80900512E0F9120E8C7901120E81
:104B1800E6900505E02416F8A3E03400F9888289B8
:104B28008374BEF0A3740CF079000248A0120CAC98
:104B380080B4120CB280AF120CB880AA791280EA45
:104B480074F412211F75D90D9004F6E0A2E0E43345
:104B58001313F8900507E0C4333354C0484401F5F3
:104B6800D97805790588828983A3A3A3E0F5D98834
:104B7800828983A3A882A983E8640B7003E964058A
:104B880070E378F6790488828983A3E0F5D988826E
:104B98008983A3A882A983E864FC7003E96404708C
:104BA800E575E1959004F6E0F97AF77B04120E7A40
:104BB800900AB07458F0A3740CF0A374B4F0A37402
:104BC8000DF0A374B4F0A3740DF0A374B4F0A3743F
:104BD8000DF0A3745EF0A3740CF0A374B4F0A37486
:104BE8000DF0A37476F0A3740CF0900ABE74B4F0C0
:104BF800A3740DF0A374B4F0A3740DF0A374B4F00F
:104C0800A3740DF0A374B4F0A3740DF0A374B4F0FE
:104C1800A3740DF0A374B4F0A3740DF0900505E02F
:104C2800F8A3E0F5838882A3A37808121F989085DB
:104C3800BE7808121F119085AE7808121F5F900584
:104C480005E0240EF8A3E03400F988828983780807
:104C5800121FA7900505E02414F8A3E03400F98892
:104C68008289837413F09003C27402F0024AB3C0BD
:104C780082C083900517E02407F5D9900507E0C4A2
:104C8800333354C0F5D97805790588828983A3A37D
:104C9800A3E0F5D988828983A3A882A983E8640B55
:104CA8007003E9640570E3900517E0601F780579E3
:104CB80005FAE82413F582E93400F583E0F5D9888C
:104CC800828983A3A882A9831AEA70E6900537E04F
:104CD8002407F5D9900507E0C4333354C04404F5DC
:104CE800D97805790588828983A3A3A3E0F5D988B3
:104CF800828983A3A882A983E8640B7003E9640509
:104D080070E3900537E0601F78057905FAE82433E9
:104D1800F582E93400F583E0F5D988828983A3A870
:104D280082A9831AEA70E675E195900AB07464F076
:104D3800A3740CF0A374B4F0A3740DF0A374B4F0CE
:104D4800A3740DF0A374B4F0A3740DF0A3745EF013
:104D5800A3740CF0A374B4F0A3740DF0A37476F0EC
:104D6800A3740CF0900ABE74B4F0A3740DF0A3748D
:104D7800B4F0A3740DF0A374B4F0A3740DF0A3748D
:104D8800B4F0A3740DF0A374B4F0A3740DF0A3747D
:104D9800B4F0A3740DF09085A2121FB6900505E03B
:104DA800240EF8A3E03400F988828983121FC29088
:104DB8000505E02414F8A3E03400F9888289837497
:104DC80012F09003C2740102489FC082C08390050C
:104DD80017E02407F5D9900507E0C4333354C044DD
:104DE80002F5D97805790588828983A3A3A3E0F51C
:104DF800D988828983A3A882A983E8640B7003E910
:104E0800640570E3900517E0601F78057905FAE8F6
:104E18002413F582E93400F583E0F5D98882898383
:104E2800A3A882A9831AEA70E675E195900AB0747E
:104E380070F0A3740CF0A37470F0A3740CF0A37456
:104E480070F0A3740CF0A37470F0A3740CF0A37446
:104E580070F0A3740CF0A37470F0A3740CF0A37436
:104E680076F0A3740CF0900ABE74B4F0A3740DF03D
:104E7800A374B4F0A3740DF0A374B4F0A3740DF08C
:104E8800A374B4F0A3740DF0A374B4F0A3740DF07C
:104E9800A374B4F0A3740DF09085A2121FB6900508
:104EA80005E0240EF8A3E03400F988828983121FF4
:104EB800C2900505E02414F8A3E03400F98882893B
:104EC800837414F09003C2740402489FC082C083A4
:104ED800900517E02407F5D9900507E0C43333544B
:104EE800C04406F5D97805790588828983A3A3A3E8
:104EF800E0F5D988828983A3A882A983E8640B7026
:104F080003E9640570E3900517E0601F78057905EB
:104F1800FAE82413F582E93400F583E0F5D98882AC
:104F28008983A3A882A9831AEA70E6900537E0244A
:104F380007F5D9900507E0C4333354C04404F5D9C4
:104F48007805790588828983A3A3A3E0F5D98882A7
:104F58008983A3A882A983E8640B7003E9640570B8
:104F6800E3900537E0601F78057905FAE82433F502
:104F780082E93400F583E0F5D988828983A3A88281
:104F8800A9831AEA70E675E195900AB0746AF0A3ED
:104F9800740CF0A374B4F0A3740DF0A374B4F0A36C
:104FA800740DF0A374B4F0A3740DF0A374B4F0A35B
:104FB800740DF0A374B4F0A3740DF0A37476F0A389
:104FC800740CF0900ABE74B4F0A3740DF0A374B41A
:104FD800F0A3740DF0A374B4F0A3740DF0A374B42B
:104FE800F0A3740DF0A374B4F0A3740DF0A374B41B
:104FF800F0A3740DF09085A2121FB6900505E02469
:105008000EF8A3E03400F988828983121FC2900544
:1050180005E02414F8A3E03400F988828983741524
:10502800F09003C2740302489FC082C083900505B4
:10503800E0F8A3E0F5838882A3A3A3A3A3A3E402D3
:10504800489D74F712211F9003F0E0F875F004A44E
:10505800C8AAF02AF974F228F8740339F9E8240583
:10506800FAE93400FB8A828B83E0FCA3E0FD8882A6
:105078008983A3A3A3A3A3A3A3A3A3ECF0A3EDF005
:1050880088828983A3A3A3A3A3A3A3E024FFF8A3EF
:10509800E034FFF98A828B83E8F0A3E90252EF74C7
:1050A800F712211FEAFEEBFF9061D0E06003025186
:1050B8008475D90E75D90375D904EE248CF582EF61
:1050C8003400F583E5822408F8E5833400F9E0F537
:1050D800D9A3E865827003E9658370F2EE2484F54C
:1050E80082EF3400F583E5822404F8E5833400F97F
:1050F800E0F5D9A3E865827003E9658370F275E18C
:10510800957908EE248CFAEF3400FB120D607904CF
:10511800EE2484FAEF3400FB120D607C00EEF8EF09
:10512800F9ECFAC3E49AFA95E0FBEE2AFAEF3BFBB6
:10513800EA248BF582EB3400F583E0C0E0E824AB89
:10514800F582E93400F583D0E0F00C88828983A3E6
:10515800A882A983ECC3940840C7EE2470F582EFB7
:105168003400F583E0F8A3E0F9EE2472F582EF3419
:1051780000F583E8F0A3E9F0790180027900025292
:10518800F0C082C08375D90275D90375D90575E158
:1051980095EA2470F582EB3400F583E0F8A3E0F992
:1051A800EA2472F582EB3400F583E8F0A3E9F0799C
:1051B800010248A074F612211FEAFEEBFF90056079
:1051C8007406F075086075090578081223327C01A9
:1051D8007903120DA874021220DE75D90675D90359
:1051E800758260758305E0F5D9A3E582646570046E
:1051F800E583640570F075E1959003C2E06408707A
:105208001EEE2470F582EF3400F583E0F8A3E0F990
:10521800EE2472F582EF3400F583E8F0A3E9F07923
:10522800010253BC74F612211FEAFEEBFF9061D015
:10523800E070667801900560740BF09003C2E0643A
:1052480007701975086075090578081223327C0102
:105258007903120DA874021220DE7805740128F56E
:10526800D975D903758260758305E8FAE0F5D9A385
:105278001AEA70F875E195EE2470F582EF3400F5BE
:1052880083E0F8A3E0F9EE2472F582EF3400F583A9
:10529800E8F0A3E9F07901800279000253BC74F7C1
:1052A80012211FEAFEEBFF75D90375D90375D90DD5
:1052B800EE24DEF582EF3400F583E0F5D975E1954B
:1052C8007904120EB0EE2470F582EF3400F583E015
:1052D800F8A3E0F9EE2472F582EF3400F583E8F0E4
:1052E800A3E9F079018001F07F010221F174F6123F
:1052F800211FEAFEEBFF9061D0E0F87480C398FAB2
:10530800EE2483F582EF3400F583E06004780480AE
:10531800027800E8240BF8EAC39850030253BA7DD8
:1053280009900560EDF0EE24E3F8EF3400F97A61B6
:105338007B057C0888828983E08A828B83F0888257
:105348008983A3A882A9838A828B83A3AA82AB8339
:105358001CEC70E0EE2483F582EF3400F583E06006
:105368001D75086075090578081223327C097903D0
:10537800EEFAEFFB120DA874021220DE7D0D740107
:105388002DF5D975D9037582607583058D08E0F50B
:10539800D9A31508E50870F675E1957904120EB0E1
:1053A800EE241DF582EF3400F583E4F0A3F07901D3
:1053B800800279007F020221F174F612211FEAFEB1
:1053C800EBFF9061D0E0F87480C398FAEE2483F57F
:1053D80082EF3400F583E06004780480027800E806
:1053E8002408F8EAC39850030254C17D069005606A
:1053F800740CF09003DFE0900561F07AE07B0378AD
:105408006279057C028A828B83E088828983F08AAC
:10541800828B83A3AA82AB8388828983A3A882A96B
:10542800831CEC70E07AE27B037C028A828B83E047
:1054380088828983F08A828B83A3AA82AB8388823D
:105448008983A3A882A9831CEC70E0EE2483F582EB
:10545800EF3400F583E0601D75086075090578086C
:105468001223327C067903EEFAEFFB120DA87402C0
:105478001220DE7D0A74012DF5D975D90375826075
:105488007583058D08E0F5D9A31508E50870F6754C
:10549800E1957904120EB0EE2470F582EF3400F530
:1054A80083E0F8A3E0F9EE2472F582EF3400F58387
:1054B800E8F0A3E9F07901800279000253BC74F6A0
:1054C80012211FEAFEEBFF9061D0E0F87480C398C8
:1054D800FAEE2483F582EF3400F583E06004780463
:1054E80080027800E82404F8EAC39850030255A023
:1054F8007802900560E8F0EE24F5F582EF3400F5C7
:1055080083E0900561F0EE2483F582EF3400F583A3
:10551800E0601B75086075090578081223327C0263
:105528007903EEFA120DA874021220DE78067401CF
:1055380028F5D975D9037582607583058808E0F563
:10554800D9A31508E50870F675E195EE2474F5827F
:10555800EF3400F583E4F0EE2480F582EF3400F5B3
:1055680083E4F0EE241DF582EF3400F583E4F0A324
:10557800F07904120EB0EE240DF582EF3400F583B5
:10558800E0F8A3E0F9EE2472F582EF3400F583E841
:10559800F0A3E9F07901800279000253BC74F61295
:1055A800211F9061D0E0F87480C398FCEA2483F549
:1055B80082EB3400F583E06004780480027800E828
:1055C8002404F8ECC398405B79029005607407F0F6
:1055D800EA24F6F582EB3400F583E0900561F0EA01
:1055E8002483F582EB3400F583E060187508607554
:1055F800090578081223327C0209120DA8740212D8
:1056080020DE7906740129F5D975D903758260758C
:105618008305E9F8E0F5D9A318E870F875E19579FC
:1056280001800279000253BC74F512211FE9FCA223
:10563800AFE433F50AC2AF7D0080010DEA246FF5AF
:1056480082EB3400F583E0F8EDC398501A8D08EA30
:105658002508F8EB3400F9E8246BF582E93400F505
:1056680083E06C70D68024EA246FF8EB3400F9E00C
:10567800FEEA2EFAEB3400FBEA246BF582EB3400E9
:10568800F583ECF088828983E004F0E50AA2E092D1
:10569800AF7F030221F174F612211FA2AFE433FD9C
:1056A800C2AFEA246FF582EB3400F583E014F07C96
:1056B8000060368C08EA2508F8EB3400F9E8246C19
:1056C800F582E93400F583E0C0E0E8246BF582E96F
:1056D8003400F583D0E0F00CEA246FF582EB340057
:1056E800F583E0F8ECC39840CAEA246EF582EB34FF
:1056F80000F58374FFF0EA246AF582EB3400F58341
:10570800E4F0EDA2E092AF0253BCC082C083E5A8EA
:10571800F8C2AFEA246BF582EB3400F583E9F0EACE
:10572800246AF582EB3400F583E4F0E8A2E792AF4F
:105738000248A074F312211FEAFEEBFFECFAEDFB1E
:105748008A828B83A3A3A3A3E0541FF0EE2436F52B
:1057580082EF3400F583E4F0F50AEEFCEFFD8A826F
:105768008B83E0C0E0EC245DF582ED3400F583D056
:10577800E0F0750B00E50A33333354F8F50C8A82F0
:105788008B83E0F508750900E50B7808122096E58B
:1057980008A2E0502FEE2436F8EF3400F988828909
:1057A80083E0F508EE2508F508EF3400F509E5086B
:1057B8002438F582E5093400F583E50CF088828900
:1057C80083E004F0050B050CE50BC3940840AF0516
:1057D8000A8A828B83A3AA82AB838C828D83A3AC33
:1057E80082AD83E50AC3940550030257667F05021C
:1057F80021F174F712211F9003EEE0640170077A1B
:10580800007B000259717E009003F4E070F174018E
:10581800F0A3E4F0A3F090045404F0900457E4F0EB
:10582800A3F090045A04F09003F7E4F0A3F0A3F077
:10583800A3F090040104F0900427E4F09086161277
:105848001FB690040A121FC290040EE4F0A3F0A33E
:10585800F0900472F0900466F090045B7480F0A3FA
:10586800E4F0900461F0900459F09004DDF0A3F0A6
:10587800A3F0A3F0A3F0A3F0A3F0A3F09004E6F044
:10588800900475F09004C5F0A3F0908616121FB628
:105898009004C7121FC2908616121FB69004CB122E
:1058A8001FC29004D1E4F09004D3F09004CFF0909C
:1058B80004E9F0A3F0A3F0A3F0A3F0A3F0A3F0A3EE
:1058C800F078EE7903E8246FF582E93400F5837403
:1058D800FFF00E88828983A3A882A983EEC394046B
:1058E80040E37AEE7B0378FD790488828983E0C0FF
:1058F800E0EA2461F582EB3400F583D0E0F0888299
:105908008983A3A882A9838A828B83A3AA82AB8373
:10591800E864027003E9640570D07AEE7B0378D5F9
:10592800790388828983A3E0C0E0EA24E7F582EB63
:105938003400F583D0E0F088828983A3A882A98304
:105948008A828B83A3AA82AB83E864DD7003E9644F
:105958000370CF9003EEE004F0640170089003F642
:10596800E09003F0F07AF27B030252F0C082C08329
:105978009003F5E4F09003F4F09003EEF0A3F0A3A5
:1059880074FFF075E1F10248A0C082C08378007905
:10599800009003F5E0600478F2790388828983A394
:1059A800A3A3A3E0F90248A074F612211FEAFEEBB4
:1059B800FF8E828F83A3A3A3E0600F8E828F83A3C1
:1059C800A3A3E4F09003EFE014F09003EEE014F0EA
:1059D80070069003F074FFF08E828F83A3A3E4F027
:1059E800900502E0700D9003EFE064017005790006
:1059F800120E92EE2465F582EF3400F583E0F8A3E9
:105A0800E0F9E8496029EE2465F8EF3400F98808E0
:105A180089098882F583E0FCA3E0FD9003F0E0FAB1
:105A28007B00120A7E850882850983E4F0A3F0EEE4
:105A3800FAEFFB120DD80253BC74F712211FEAFECD
:105A4800EBFF8E828F83A3A3A3A3E0FA7B00120A45
:105A5800C0EEFAEFFB120D2A120DC00252F0C082FE
:105A6800C08378D5790388828983A3E4F088828902
:105A780083A3A882A983E864DD7003E9640370E660
:105A88009003D6024DCD74F612211FEAFEEBFFEC0F
:105A98002403F8ED3400F988088909EC2407F8EDA7
:105AA8003400F9E8FCE9FD8C828D83E0F8A3E0F985
:105AB800850882850983E0FAA3E0FB12203DEE24E5
:105AC8000DF582EF3400F583E8F0A3E9F08C828DC0
:105AD80083E0F8A3E0F9850882850983E0FAA3E06A
:105AE800FB12203D8B09EA45096013EE240DF5826F
:105AF800EF3400F583E02401F0A3E03400F0025312
:105B0800BC74F612211FEAFEEBFFEE242EF582EF9D
:105B18003400F583E0FCA3E0FD780079FAECFAEDB7
:105B2800FB12203DEE2470F582EF3400F583E8F097
